{"abi":[{"type":"constructor","inputs":[{"name":"_collateralToken","type":"address","internalType":"address"},{"name":"_forwarder","type":"address","internalType":"address"},{"name":"_owner","type":"address","internalType":"address"}],"stateMutability":"nonpayable"},{"type":"function","name":"ORDER_TYPEHASH","inputs":[],"outputs":[{"name":"","type":"bytes32","internalType":"bytes32"}],"stateMutability":"view"},{"type":"function","name":"batchFillOrders","inputs":[{"name":"orders","type":"tuple[]","internalType":"struct Order[]","components":[{"name":"marketId","type":"uint256","internalType":"uint256"},{"name":"outcome","type":"uint8","internalType":"uint8"},{"name":"to","type":"address","internalType":"address"},{"name":"shares","type":"uint256","internalType":"uint256"},{"name":"cost","type":"uint256","internalType":"uint256"},{"name":"deadline","type":"uint256","internalType":"uint256"},{"name":"nonce","type":"uint256","internalType":"uint256"}]},{"name":"signatures","type":"bytes[]","internalType":"bytes[]"}],"outputs":[],"stateMutability":"nonpayable"},{"type":"function","name":"cancelMarket","inputs":[{"name":"marketId","type":"uint256","internalType":"uint256"}],"outputs":[],"stateMutability":"nonpayable"},{"type":"function","name":"collateralToken","inputs":[],"outputs":[{"name":"","type":"address","internalType":"contract IERC20"}],"stateMutability":"view"},{"type":"function","name":"createMarket","inputs":[{"name":"questionHash","type":"bytes32","internalType":"bytes32"},{"name":"resolutionTimestamp","type":"uint256","internalType":"uint256"}],"outputs":[{"name":"","type":"uint256","internalType":"uint256"}],"stateMutability":"nonpayable"},{"type":"function","name":"eip712Domain","inputs":[],"outputs":[{"name":"fields","type":"bytes1","internalType":"bytes1"},{"name":"name","type":"string","internalType":"string"},{"name":"version","type":"string","internalType":"string"},{"name":"chainId","type":"uint256","internalType":"uint256"},{"name":"verifyingContract","type":"address","internalType":"address"},{"name":"salt","type":"bytes32","internalType":"bytes32"},{"name":"extensions","type":"uint256[]","internalType":"uint256[]"}],"stateMutability":"view"},{"type":"function","name":"fillOrder","inputs":[{"name":"order","type":"tuple","internalType":"struct Order","components":[{"name":"marketId","type":"uint256","internalType":"uint256"},{"name":"outcome","type":"uint8","internalType":"uint8"},{"name":"to","type":"address","internalType":"address"},{"name":"shares","type":"uint256","internalType":"uint256"},{"name":"cost","type":"uint256","internalType":"uint256"},{"name":"deadline","type":"uint256","internalType":"uint256"},{"name":"nonce","type":"uint256","internalType":"uint256"}]},{"name":"signature","type":"bytes","internalType":"bytes"}],"outputs":[],"stateMutability":"nonpayable"},{"type":"function","name":"forwarder","inputs":[],"outputs":[{"name":"","type":"address","internalType":"address"}],"stateMutability":"view"},{"type":"function","name":"getMarket","inputs":[{"name":"marketId","type":"uint256","internalType":"uint256"}],"outputs":[{"name":"","type":"tuple","internalType":"struct PredictionMarket.Market","components":[{"name":"questionHash","type":"bytes32","internalType":"bytes32"},{"name":"creator","type":"address","internalType":"address"},{"name":"yesToken","type":"address","internalType":"contract OutcomeToken"},{"name":"noToken","type":"address","internalType":"contract OutcomeToken"},{"name":"resolutionTimestamp","type":"uint256","internalType":"uint256"},{"name":"totalCollateral","type":"uint256","internalType":"uint256"},{"name":"status","type":"uint8","internalType":"enum PredictionMarket.MarketStatus"},{"name":"outcome","type":"uint8","internalType":"enum PredictionMarket.Outcome"}]}],"stateMutability":"view"},{"type":"function","name":"getTokenAddresses","inputs":[{"name":"marketId","type":"uint256","internalType":"uint256"}],"outputs":[{"name":"yes","type":"address","internalType":"address"},{"name":"no","type":"address","internalType":"address"}],"stateMutability":"view"},{"type":"function","name":"marketCount","inputs":[],"outputs":[{"name":"","type":"uint256","internalType":"uint256"}],"stateMutability":"view"},{"type":"function","name":"markets","inputs":[{"name":"","type":"uint256","internalType":"uint256"}],"outputs":[{"name":"questionHash","type":"bytes32","internalType":"bytes32"},{"name":"creator","type":"address","internalType":"address"},{"name":"yesToken","type":"address","internalType":"contract OutcomeToken"},{"name":"noToken","type":"address","internalType":"contract OutcomeToken"},{"name":"resolutionTimestamp","type":"uint256","internalType":"uint256"},{"name":"totalCollateral","type":"uint256","internalType":"uint256"},{"name":"status","type":"uint8","internalType":"enum PredictionMarket.MarketStatus"},{"name":"outcome","type":"uint8","internalType":"enum PredictionMarket.Outcome"}],"stateMutability":"view"},{"type":"function","name":"nonces","inputs":[{"name":"owner","type":"address","internalType":"address"}],"outputs":[{"name":"","type":"uint256","internalType":"uint256"}],"stateMutability":"view"},{"type":"function","name":"onReport","inputs":[{"name":"metadata","type":"bytes","internalType":"bytes"},{"name":"report","type":"bytes","internalType":"bytes"}],"outputs":[],"stateMutability":"nonpayable"},{"type":"function","name":"orderDigest","inputs":[{"name":"order","type":"tuple","internalType":"struct Order","components":[{"name":"marketId","type":"uint256","internalType":"uint256"},{"name":"outcome","type":"uint8","internalType":"uint8"},{"name":"to","type":"address","internalType":"address"},{"name":"shares","type":"uint256","internalType":"uint256"},{"name":"cost","type":"uint256","internalType":"uint256"},{"name":"deadline","type":"uint256","internalType":"uint256"},{"name":"nonce","type":"uint256","internalType":"uint256"}]}],"outputs":[{"name":"","type":"bytes32","internalType":"bytes32"}],"stateMutability":"view"},{"type":"function","name":"owner","inputs":[],"outputs":[{"name":"","type":"address","internalType":"address"}],"stateMutability":"view"},{"type":"function","name":"questionExists","inputs":[{"name":"","type":"bytes32","internalType":"bytes32"}],"outputs":[{"name":"","type":"bool","internalType":"bool"}],"stateMutability":"view"},{"type":"function","name":"redeemWinning","inputs":[{"name":"marketId","type":"uint256","internalType":"uint256"},{"name":"amount","type":"uint256","internalType":"uint256"}],"outputs":[],"stateMutability":"nonpayable"},{"type":"function","name":"setForwarder","inputs":[{"name":"_forwarder","type":"address","internalType":"address"}],"outputs":[],"stateMutability":"nonpayable"},{"type":"function","name":"setOwner","inputs":[{"name":"_owner","type":"address","internalType":"address"}],"outputs":[],"stateMutability":"nonpayable"},{"type":"event","name":"EIP712DomainChanged","inputs":[],"anonymous":false},{"type":"event","name":"MarketCancelled","inputs":[{"name":"marketId","type":"uint256","indexed":true,"internalType":"uint256"}],"anonymous":false},{"type":"event","name":"MarketCreated","inputs":[{"name":"marketId","type":"uint256","indexed":true,"internalType":"uint256"},{"name":"questionHash","type":"bytes32","indexed":false,"internalType":"bytes32"},{"name":"creator","type":"address","indexed":false,"internalType":"address"},{"name":"yesToken","type":"address","indexed":false,"internalType":"address"},{"name":"noToken","type":"address","indexed":false,"internalType":"address"},{"name":"resolutionTimestamp","type":"uint256","indexed":false,"internalType":"uint256"}],"anonymous":false},{"type":"event","name":"MarketResolved","inputs":[{"name":"marketId","type":"uint256","indexed":true,"internalType":"uint256"},{"name":"outcome","type":"uint8","indexed":false,"internalType":"enum PredictionMarket.Outcome"}],"anonymous":false},{"type":"event","name":"OrderFilled","inputs":[{"name":"marketId","type":"uint256","indexed":true,"internalType":"uint256"},{"name":"buyer","type":"address","indexed":true,"internalType":"address"},{"name":"outcome","type":"uint8","indexed":false,"internalType":"enum PredictionMarket.Outcome"},{"name":"shares","type":"uint256","indexed":false,"internalType":"uint256"},{"name":"cost","type":"uint256","indexed":false,"internalType":"uint256"}],"anonymous":false},{"type":"event","name":"WinningsRedeemed","inputs":[{"name":"marketId","type":"uint256","indexed":true,"internalType":"uint256"},{"name":"user","type":"address","indexed":true,"internalType":"address"},{"name":"amount","type":"uint256","indexed":false,"internalType":"uint256"}],"anonymous":false},{"type":"error","name":"ECDSAInvalidSignature","inputs":[]},{"type":"error","name":"ECDSAInvalidSignatureLength","inputs":[{"name":"length","type":"uint256","internalType":"uint256"}]},{"type":"error","name":"ECDSAInvalidSignatureS","inputs":[{"name":"s","type":"bytes32","internalType":"bytes32"}]},{"type":"error","name":"InvalidAccountNonce","inputs":[{"name":"account","type":"address","internalType":"address"},{"name":"currentNonce","type":"uint256","internalType":"uint256"}]},{"type":"error","name":"InvalidShortString","inputs":[]},{"type":"error","name":"StringTooLong","inputs":[{"name":"str","type":"string","internalType":"string"}]}],"bytecode":{"object":"0x610180604052348015610010575f5ffd5b506040516143e53803806143e583398101604081905261002f916101e7565b604080518082018252601081526f141c99591a58dd1a5bdb93585c9ad95d60821b602080830191909152825180840190935260018352603160f81b9083015290610079825f610154565b61012052610088816001610154565b61014052815160208084019190912060e052815190820120610100524660a05261011460e05161010051604080517f8b73c3c69bb8fe3d512ecc4cf759cc79239f7b179b0ffacaa9a75d522b39400f60208201529081019290925260608201524660808201523060a08201525f9060c00160405160208183030381529060405280519060200120905090565b60805250503060c0526001600160a01b0392831661016052600380549284166001600160a01b0319938416179055600480549190931691161790556103d1565b5f60208351101561016f5761016883610186565b9050610180565b8161017a84826102bf565b5060ff90505b92915050565b5f5f829050601f815111156101b9578260405163305a27a960e01b81526004016101b09190610379565b60405180910390fd5b80516101c4826103ae565b179392505050565b80516001600160a01b03811681146101e2575f5ffd5b919050565b5f5f5f606084860312156101f9575f5ffd5b610202846101cc565b9250610210602085016101cc565b915061021e604085016101cc565b90509250925092565b634e487b7160e01b5f52604160045260245ffd5b600181811c9082168061024f57607f821691505b60208210810361026d57634e487b7160e01b5f52602260045260245ffd5b50919050565b601f8211156102ba57805f5260205f20601f840160051c810160208510156102985750805b601f840160051c820191505b818110156102b7575f81556001016102a4565b50505b505050565b81516001600160401b038111156102d8576102d8610227565b6102ec816102e6845461023b565b84610273565b6020601f82116001811461031e575f83156103075750848201515b5f19600385901b1c1916600184901b1784556102b7565b5f84815260208120601f198516915b8281101561034d578785015182556020948501946001909201910161032d565b508482101561036a57868401515f19600387901b60f8161c191681555b50505050600190811b01905550565b602081525f82518060208401528060208501604085015e5f604082850101526040601f19601f83011684010191505092915050565b8051602080830151919081101561026d575f1960209190910360031b1b16919050565b60805160a05160c05160e05161010051610120516101405161016051613fab61043a5f395f818161034101528181610f540152611a6b01525f611e6701525f611e3601525f61252601525f6124fe01525f61245901525f61248301525f6124ad0152613fab5ff3fe608060405234801561000f575f5ffd5b5060043610610163575f3560e01c8063b1283e77116100c7578063d28833251161007d578063ec97908211610063578063ec9790821461042d578063f645d4f914610436578063f973a20914610456575f5ffd5b8063d2883325146103fa578063eb44fdd31461040d575f5ffd5b8063b9998a24116100ad578063b9998a2414610363578063bad7266614610376578063c591a49114610389575f5ffd5b8063b1283e77146102b5578063b2016bd41461033c575f5ffd5b8063805f21321161011c5780638d8e35e3116101025780638d8e35e31461022b5780638da5cb5b1461025d57806390008382146102a2575f5ffd5b8063805f2132146101fd57806384b0196e14610210575f5ffd5b806341df6d901161014c57806341df6d901461018f5780637c16cd9e146101a25780637ecebe00146101b5575f5ffd5b806313af403514610167578063360b52071461017c575b5f5ffd5b61017a610175366004612843565b61047d565b005b61017a61018a3660046128d1565b6105c7565b61017a61019d366004612963565b610708565b61017a6101b03660046129fe565b610851565b6101ea6101c3366004612843565b73ffffffffffffffffffffffffffffffffffffffff165f9081526002602052604090205490565b6040519081526020015b60405180910390f35b61017a61020b366004612a15565b6109bb565b610218610c3c565b6040516101f49796959493929190612ac1565b61024d6102393660046129fe565b60076020525f908152604090205460ff1681565b60405190151581526020016101f4565b60045461027d9073ffffffffffffffffffffffffffffffffffffffff1681565b60405173ffffffffffffffffffffffffffffffffffffffff90911681526020016101f4565b61017a6102b0366004612b80565b610c9a565b6103286102c33660046129fe565b600660208190525f91825260409091208054600182015460028301546003840154600485015460058601549590960154939573ffffffffffffffffffffffffffffffffffffffff93841695928416949190931692919060ff8082169161010090041688565b6040516101f4989796959493929190612c0f565b61027d7f000000000000000000000000000000000000000000000000000000000000000081565b61017a610371366004612843565b611070565b6101ea610384366004612c7c565b6111b5565b6103cd6103973660046129fe565b5f908152600660205260409020600281015460039091015473ffffffffffffffffffffffffffffffffffffffff91821692911690565b6040805173ffffffffffffffffffffffffffffffffffffffff9384168152929091166020830152016101f4565b6101ea610408366004612b80565b6111cd565b61042061041b3660046129fe565b6116b9565b6040516101f49190612c96565b6101ea60055481565b60035461027d9073ffffffffffffffffffffffffffffffffffffffff1681565b6101ea7f6b714dd62dc151811f08b53625edcb7a50c9c296072843a2e7d37bf4a343e43a81565b60045473ffffffffffffffffffffffffffffffffffffffff163314610503576040517f08c379a000000000000000000000000000000000000000000000000000000000815260206004820152600960248201527f4e6f74206f776e6572000000000000000000000000000000000000000000000060448201526064015b60405180910390fd5b73ffffffffffffffffffffffffffffffffffffffff8116610580576040517f08c379a000000000000000000000000000000000000000000000000000000000815260206004820152600c60248201527f5a65726f2061646472657373000000000000000000000000000000000000000060448201526064016104fa565b600480547fffffffffffffffffffffffff00000000000000000000000000000000000000001673ffffffffffffffffffffffffffffffffffffffff92909216919091179055565b60045473ffffffffffffffffffffffffffffffffffffffff163314610648576040517f08c379a000000000000000000000000000000000000000000000000000000000815260206004820152600960248201527f4e6f74206f776e6572000000000000000000000000000000000000000000000060448201526064016104fa565b5f6106548484846117e1565b90505f6106676040860160208701612d57565b60ff16600281111561067b5761067b612ba0565b90506106a38535826106936060890160408a01612843565b88606001358960800135876119ac565b8173ffffffffffffffffffffffffffffffffffffffff16855f01357fca339ebcfccd32204847ddc1f4b16f9abff9074ac268024a6f72449545ecc21883886060013589608001356040516106f993929190612d70565b60405180910390a35050505050565b60045473ffffffffffffffffffffffffffffffffffffffff163314610789576040517f08c379a000000000000000000000000000000000000000000000000000000000815260206004820152600960248201527f4e6f74206f776e6572000000000000000000000000000000000000000000000060448201526064016104fa565b828181146107f3576040517f08c379a000000000000000000000000000000000000000000000000000000000815260206004820152600f60248201527f4c656e677468206d69736d61746368000000000000000000000000000000000060448201526064016104fa565b5f5b818110156108495761084186868381811061081257610812612d91565b905060e0020185858481811061082a5761082a612d91565b905060200281019061083c9190612dbe565b610648565b6001016107f5565b505050505050565b60045473ffffffffffffffffffffffffffffffffffffffff1633146108d2576040517f08c379a000000000000000000000000000000000000000000000000000000000815260206004820152600960248201527f4e6f74206f776e6572000000000000000000000000000000000000000000000060448201526064016104fa565b5f81815260066020526040812090600682015460ff1660028111156108f9576108f9612ba0565b14610960576040517f08c379a000000000000000000000000000000000000000000000000000000000815260206004820152600f60248201527f4d61726b6574206e6f74206f70656e000000000000000000000000000000000060448201526064016104fa565b6006810180547fffffffffffffffffffffffffffffffffffffffffffffffffffffffffffffff0016600217905560405182907f2ca440fb7fca85d7f55d395a4abd94817330b83a62f3502efbb4770144e4ca97905f90a25050565b60035473ffffffffffffffffffffffffffffffffffffffff163314610a3c576040517f08c379a000000000000000000000000000000000000000000000000000000000815260206004820152601860248201527f4f6e6c7920436861696e6c696e6b20466f72776172646572000000000000000060448201526064016104fa565b5f80610a4a83850185612e1f565b915091505f8160ff166002811115610a6457610a64612ba0565b5f848152600660205260408120919250600682015460ff166002811115610a8d57610a8d612ba0565b14610af4576040517f08c379a000000000000000000000000000000000000000000000000000000000815260206004820152600f60248201527f4d61726b6574206e6f74206f70656e000000000000000000000000000000000060448201526064016104fa565b6001826002811115610b0857610b08612ba0565b1480610b2557506002826002811115610b2357610b23612ba0565b145b610b8b576040517f08c379a000000000000000000000000000000000000000000000000000000000815260206004820152600f60248201527f496e76616c6964206f7574636f6d65000000000000000000000000000000000060448201526064016104fa565b60068101805460017fffffffffffffffffffffffffffffffffffffffffffffffffffffffffffffff008216811783558492917fffffffffffffffffffffffffffffffffffffffffffffffffffffffffffff00001617610100836002811115610bf557610bf5612ba0565b0217905550837f739f283563fb51ab6b89ee95d937b2e63a6cfcb83c385dbebb629f9d97bd43e683604051610c2a9190612e49565b60405180910390a25050505050505050565b5f6060805f5f5f6060610c4d611e2f565b610c55611e60565b604080515f808252602082019092527f0f000000000000000000000000000000000000000000000000000000000000009b939a50919850469750309650945092509050565b5f8281526006602052604090206001600682015460ff166002811115610cc257610cc2612ba0565b14610d29576040517f08c379a000000000000000000000000000000000000000000000000000000000815260206004820152601360248201527f4d61726b6574206e6f74207265736f6c7665640000000000000000000000000060448201526064016104fa565b5f60016006830154610100900460ff166002811115610d4a57610d4a612ba0565b14610d6f57600382015473ffffffffffffffffffffffffffffffffffffffff16610d8b565b600282015473ffffffffffffffffffffffffffffffffffffffff165b6040517f70a08231000000000000000000000000000000000000000000000000000000008152336004820152909150839073ffffffffffffffffffffffffffffffffffffffff8316906370a0823190602401602060405180830381865afa158015610df8573d5f5f3e3d5ffd5b505050506040513d601f19601f82011682018060405250810190610e1c9190612e89565b1015610e84576040517f08c379a000000000000000000000000000000000000000000000000000000000815260206004820152601360248201527f496e73756666696369656e7420746f6b656e730000000000000000000000000060448201526064016104fa565b6040517f9dc29fac0000000000000000000000000000000000000000000000000000000081523360048201526024810184905273ffffffffffffffffffffffffffffffffffffffff821690639dc29fac906044015f604051808303815f87803b158015610eef575f5ffd5b505af1158015610f01573d5f5f3e3d5ffd5b5050505082826005015f828254610f189190612ecd565b90915550506040517fa9059cbb000000000000000000000000000000000000000000000000000000008152336004820152602481018490525f907f000000000000000000000000000000000000000000000000000000000000000073ffffffffffffffffffffffffffffffffffffffff169063a9059cbb906044016020604051808303815f875af1158015610faf573d5f5f3e3d5ffd5b505050506040513d601f19601f82011682018060405250810190610fd39190612ee0565b90508061103c576040517f08c379a000000000000000000000000000000000000000000000000000000000815260206004820152601460248201527f55534443207472616e73666572206661696c656400000000000000000000000060448201526064016104fa565b604051848152339086907fa5b5f999d356bb14d51114327e0f0eefeed3a4083169d023dd7fe6744ca15174906020016106f9565b60045473ffffffffffffffffffffffffffffffffffffffff1633146110f1576040517f08c379a000000000000000000000000000000000000000000000000000000000815260206004820152600960248201527f4e6f74206f776e6572000000000000000000000000000000000000000000000060448201526064016104fa565b73ffffffffffffffffffffffffffffffffffffffff811661116e576040517f08c379a000000000000000000000000000000000000000000000000000000000815260206004820152600c60248201527f5a65726f2061646472657373000000000000000000000000000000000000000060448201526064016104fa565b600380547fffffffffffffffffffffffff00000000000000000000000000000000000000001673ffffffffffffffffffffffffffffffffffffffff92909216919091179055565b5f6111c76111c283611e8d565b611f63565b92915050565b6004545f9073ffffffffffffffffffffffffffffffffffffffff163314611250576040517f08c379a000000000000000000000000000000000000000000000000000000000815260206004820152600960248201527f4e6f74206f776e6572000000000000000000000000000000000000000000000060448201526064016104fa565b4282116112b9576040517f08c379a000000000000000000000000000000000000000000000000000000000815260206004820152601c60248201527f5265736f6c7574696f6e206d75737420626520696e206675747572650000000060448201526064016104fa565b5f8381526007602052604090205460ff1615611331576040517f08c379a000000000000000000000000000000000000000000000000000000000815260206004820152601560248201527f4d61726b657420616c726561647920657869737473000000000000000000000060448201526064016104fa565b600580545f918261134183612eff565b9190505590505f61135182611faa565b6040516020016113619190612f4d565b60405160208183030381529060405261137983611faa565b6040516020016113899190612f4d565b6040516020818303038152906040526040516113a490612836565b6113af929190612f7e565b604051809103905ff0801580156113c8573d5f5f3e3d5ffd5b5090505f6113d583611faa565b6040516020016113e59190612fab565b6040516020818303038152906040526113fd84611faa565b60405160200161140d9190612fab565b60405160208183030381529060405260405161142890612836565b611433929190612f7e565b604051809103905ff08015801561144c573d5f5f3e3d5ffd5b5090506040518061010001604052808781526020013373ffffffffffffffffffffffffffffffffffffffff1681526020018373ffffffffffffffffffffffffffffffffffffffff1681526020018273ffffffffffffffffffffffffffffffffffffffff1681526020018681526020015f81526020015f60028111156114d3576114d3612ba0565b81526020015f90525f848152600660208181526040928390208451815590840151600180830180547fffffffffffffffffffffffff000000000000000000000000000000000000000090811673ffffffffffffffffffffffffffffffffffffffff94851617909155948601516002808501805488169285169290921790915560608701516003850180549097169316929092179094556080850151600483015560a0850151600583015560c08501519282018054929490927fffffffffffffffffffffffffffffffffffffffffffffffffffffffffffffff00169184908111156115bf576115bf612ba0565b021790555060e08201516006820180547fffffffffffffffffffffffffffffffffffffffffffffffffffffffffffff00ff1661010083600281111561160657611606612ba0565b021790555050505f86815260076020908152604091829020805460017fffffffffffffffffffffffffffffffffffffffffffffffffffffffffffffff009091161790558151888152339181019190915273ffffffffffffffffffffffffffffffffffffffff848116828401528316606082015260808101879052905184917f525ad00586a161c11070e5c5de95323165a78ae0137615b2f698ba5a527d458b919081900360a00190a25090949350505050565b6116fe60408051610100810182525f80825260208201819052918101829052606081018290526080810182905260a081018290529060c082019081526020015f905290565b5f8281526006602081815260409283902083516101008101855281548152600182015473ffffffffffffffffffffffffffffffffffffffff908116938201939093526002808301548416958201959095526003820154909216606083015260048101546080830152600581015460a083015291820154909260c084019160ff169081111561178e5761178e612ba0565b600281111561179f5761179f612ba0565b81526020016006820160019054906101000a900460ff1660028111156117c7576117c7612ba0565b60028111156117d8576117d8612ba0565b90525092915050565b5f8360a00135421115611850576040517f08c379a000000000000000000000000000000000000000000000000000000000815260206004820152600d60248201527f4f7264657220657870697265640000000000000000000000000000000000000060448201526064016104fa565b604082148061185f5750604182145b6118c5576040517f08c379a000000000000000000000000000000000000000000000000000000000815260206004820152601860248201527f496e76616c6964207369676e6174757265206c656e677468000000000000000060448201526064016104fa565b6118ce846120e1565b6119186118dd6111c286611e8d565b84848080601f0160208091040260200160405190810160405280939291908181526020018383808284375f920191909152506122e592505050565b905073ffffffffffffffffffffffffffffffffffffffff8116611997576040517f08c379a000000000000000000000000000000000000000000000000000000000815260206004820152601160248201527f496e76616c6964207369676e617475726500000000000000000000000000000060448201526064016104fa565b6119a5818560c0013561230d565b9392505050565b6005548610611a17576040517f08c379a000000000000000000000000000000000000000000000000000000000815260206004820152601560248201527f4d61726b657420646f6573206e6f74206578697374000000000000000000000060448201526064016104fa565b6040517f23b872dd00000000000000000000000000000000000000000000000000000000815273ffffffffffffffffffffffffffffffffffffffff8281166004830152306024830152604482018490525f917f0000000000000000000000000000000000000000000000000000000000000000909116906323b872dd906064016020604051808303815f875af1158015611ab3573d5f5f3e3d5ffd5b505050506040513d601f19601f82011682018060405250810190611ad79190612ee0565b905080611b40576040517f08c379a000000000000000000000000000000000000000000000000000000000815260206004820152601460248201527f55534443207472616e73666572206661696c656400000000000000000000000060448201526064016104fa565b5f87815260066020526040812090600682015460ff166002811115611b6757611b67612ba0565b14611bce576040517f08c379a000000000000000000000000000000000000000000000000000000000815260206004820152600f60248201527f4d61726b6574206e6f74206f70656e000000000000000000000000000000000060448201526064016104fa565b6001876002811115611be257611be2612ba0565b03611cfc5760028101546040517f40c10f1900000000000000000000000000000000000000000000000000000000815273ffffffffffffffffffffffffffffffffffffffff888116600483015260248201889052909116906340c10f19906044015f604051808303815f87803b158015611c5a575f5ffd5b505af1158015611c6c573d5f5f3e3d5ffd5b5050505060038101546040517f40c10f190000000000000000000000000000000000000000000000000000000081523060048201526024810187905273ffffffffffffffffffffffffffffffffffffffff909116906340c10f19906044015f604051808303815f87803b158015611ce1575f5ffd5b505af1158015611cf3573d5f5f3e3d5ffd5b50505050611e0d565b60038101546040517f40c10f1900000000000000000000000000000000000000000000000000000000815273ffffffffffffffffffffffffffffffffffffffff888116600483015260248201889052909116906340c10f19906044015f604051808303815f87803b158015611d6f575f5ffd5b505af1158015611d81573d5f5f3e3d5ffd5b5050505060028101546040517f40c10f190000000000000000000000000000000000000000000000000000000081523060048201526024810187905273ffffffffffffffffffffffffffffffffffffffff909116906340c10f19906044015f604051808303815f87803b158015611df6575f5ffd5b505af1158015611e08573d5f5f3e3d5ffd5b505050505b83816005015f828254611e209190612fdc565b90915550505050505050505050565b6060611e5b7f00000000000000000000000000000000000000000000000000000000000000005f612397565b905090565b6060611e5b7f00000000000000000000000000000000000000000000000000000000000000006001612397565b5f7f6b714dd62dc151811f08b53625edcb7a50c9c296072843a2e7d37bf4a343e43a8235611ec16040850160208601612d57565b611ed16060860160408701612843565b856060013586608001358760a001358860c00135604051602001611f46989796959493929190978852602088019690965260ff94909416604087015273ffffffffffffffffffffffffffffffffffffffff929092166060860152608085015260a084015260c083015260e08201526101000190565b604051602081830303815290604052805190602001209050919050565b5f6111c7611f6f612440565b836040517f19010000000000000000000000000000000000000000000000000000000000008152600281019290925260228201526042902090565b6060815f03611fec57505060408051808201909152600181527f3000000000000000000000000000000000000000000000000000000000000000602082015290565b815f5b81156120155780611fff81612eff565b915061200e9050600a8361301c565b9150611fef565b5f8167ffffffffffffffff81111561202f5761202f612e5c565b6040519080825280601f01601f191660200182016040528015612059576020820181803683370190505b5090505b84156120d95761206e600a8661302f565b612079906030612fdc565b60f81b8161208684613042565b9350838151811061209957612099612d91565b60200101907effffffffffffffffffffffffffffffffffffffffffffffffffffffffffffff191690815f1a9053506120d2600a8661301c565b945061205d565b949350505050565b60016120f36040830160208401612d57565b60ff1614806121145750600261210f6040830160208401612d57565b60ff16145b61217a576040517f08c379a000000000000000000000000000000000000000000000000000000000815260206004820152600f60248201527f496e76616c6964206f7574636f6d65000000000000000000000000000000000060448201526064016104fa565b5f61218b6060830160408401612843565b73ffffffffffffffffffffffffffffffffffffffff1603612208576040517f08c379a000000000000000000000000000000000000000000000000000000000815260206004820152600e60248201527f5a65726f20726563697069656e7400000000000000000000000000000000000060448201526064016104fa565b5f816060013511612275576040517f08c379a000000000000000000000000000000000000000000000000000000000815260206004820152600b60248201527f5a65726f2073686172657300000000000000000000000000000000000000000060448201526064016104fa565b5f8160800135116122e2576040517f08c379a000000000000000000000000000000000000000000000000000000000815260206004820152600960248201527f5a65726f20636f7374000000000000000000000000000000000000000000000060448201526064016104fa565b50565b5f5f5f5f6122f38686612576565b92509250925061230382826125bf565b5090949350505050565b73ffffffffffffffffffffffffffffffffffffffff82165f908152600260205260409020805460018101909155818114612392576040517f752d88c000000000000000000000000000000000000000000000000000000000815273ffffffffffffffffffffffffffffffffffffffff84166004820152602481018290526044016104fa565b505050565b606060ff83146123b1576123aa836126c6565b90506111c7565b8180546123bd90613076565b80601f01602080910402602001604051908101604052809291908181526020018280546123e990613076565b80156124345780601f1061240b57610100808354040283529160200191612434565b820191905f5260205f20905b81548152906001019060200180831161241757829003601f168201915b505050505090506111c7565b5f3073ffffffffffffffffffffffffffffffffffffffff7f0000000000000000000000000000000000000000000000000000000000000000161480156124a557507f000000000000000000000000000000000000000000000000000000000000000046145b156124cf57507f000000000000000000000000000000000000000000000000000000000000000090565b611e5b604080517f8b73c3c69bb8fe3d512ecc4cf759cc79239f7b179b0ffacaa9a75d522b39400f60208201527f0000000000000000000000000000000000000000000000000000000000000000918101919091527f000000000000000000000000000000000000000000000000000000000000000060608201524660808201523060a08201525f9060c00160405160208183030381529060405280519060200120905090565b5f5f5f83516041036125ad576020840151604085015160608601515f1a61259f88828585612703565b9550955095505050506125b8565b505081515f91506002905b9250925092565b5f8260038111156125d2576125d2612ba0565b036125db575050565b60018260038111156125ef576125ef612ba0565b03612626576040517ff645eedf00000000000000000000000000000000000000000000000000000000815260040160405180910390fd5b600282600381111561263a5761263a612ba0565b03612674576040517ffce698f7000000000000000000000000000000000000000000000000000000008152600481018290526024016104fa565b600382600381111561268857612688612ba0565b036126c2576040517fd78bce0c000000000000000000000000000000000000000000000000000000008152600481018290526024016104fa565b5050565b60605f6126d2836127f6565b6040805160208082528183019092529192505f91906020820181803683375050509182525060208101929092525090565b5f80807f7fffffffffffffffffffffffffffffff5d576e7357a4501ddfe92f46681b20a084111561273c57505f915060039050826127ec565b604080515f808252602082018084528a905260ff891692820192909252606081018790526080810186905260019060a0016020604051602081039080840390855afa15801561278d573d5f5f3e3d5ffd5b50506040517fffffffffffffffffffffffffffffffffffffffffffffffffffffffffffffffe0015191505073ffffffffffffffffffffffffffffffffffffffff81166127e357505f9250600191508290506127ec565b92505f91508190505b9450945094915050565b5f60ff8216601f8111156111c7576040517fb3512b0c00000000000000000000000000000000000000000000000000000000815260040160405180910390fd5b610eb4806130c283390190565b5f60208284031215612853575f5ffd5b813573ffffffffffffffffffffffffffffffffffffffff811681146119a5575f5ffd5b5f60e08284031215612886575f5ffd5b50919050565b5f5f83601f84011261289c575f5ffd5b50813567ffffffffffffffff8111156128b3575f5ffd5b6020830191508360208285010111156128ca575f5ffd5b9250929050565b5f5f5f61010084860312156128e4575f5ffd5b6128ee8585612876565b925060e084013567ffffffffffffffff811115612909575f5ffd5b6129158682870161288c565b9497909650939450505050565b5f5f83601f840112612932575f5ffd5b50813567ffffffffffffffff811115612949575f5ffd5b6020830191508360208260051b85010111156128ca575f5ffd5b5f5f5f5f60408587031215612976575f5ffd5b843567ffffffffffffffff81111561298c575f5ffd5b8501601f8101871361299c575f5ffd5b803567ffffffffffffffff8111156129b2575f5ffd5b87602060e0830284010111156129c6575f5ffd5b60209182019550935085013567ffffffffffffffff8111156129e6575f5ffd5b6129f287828801612922565b95989497509550505050565b5f60208284031215612a0e575f5ffd5b5035919050565b5f5f5f5f60408587031215612a28575f5ffd5b843567ffffffffffffffff811115612a3e575f5ffd5b612a4a8782880161288c565b909550935050602085013567ffffffffffffffff811115612a69575f5ffd5b6129f28782880161288c565b5f81518084528060208401602086015e5f6020828601015260207fffffffffffffffffffffffffffffffffffffffffffffffffffffffffffffffe0601f83011685010191505092915050565b7fff000000000000000000000000000000000000000000000000000000000000008816815260e060208201525f612afb60e0830189612a75565b8281036040840152612b0d8189612a75565b6060840188905273ffffffffffffffffffffffffffffffffffffffff8716608085015260a0840186905283810360c0850152845180825260208087019350909101905f5b81811015612b6f578351835260209384019390920191600101612b51565b50909b9a5050505050505050505050565b5f5f60408385031215612b91575f5ffd5b50508035926020909101359150565b7f4e487b71000000000000000000000000000000000000000000000000000000005f52602160045260245ffd5b600381106122e2577f4e487b71000000000000000000000000000000000000000000000000000000005f52602160045260245ffd5b612c0b81612bcd565b9052565b88815273ffffffffffffffffffffffffffffffffffffffff88811660208301528781166040830152861660608201526080810185905260a081018490526101008101612c5a84612bcd565b8360c0830152612c6983612bcd565b8260e08301529998505050505050505050565b5f60e08284031215612c8c575f5ffd5b6119a58383612876565b5f610100820190508251825273ffffffffffffffffffffffffffffffffffffffff602084015116602083015273ffffffffffffffffffffffffffffffffffffffff604084015116604083015273ffffffffffffffffffffffffffffffffffffffff60608401511660608301526080830151608083015260a083015160a083015260c0830151612d2860c0840182612c02565b5060e0830151612d3b60e0840182612c02565b5092915050565b803560ff81168114612d52575f5ffd5b919050565b5f60208284031215612d67575f5ffd5b6119a582612d42565b60608101612d7d85612bcd565b938152602081019290925260409091015290565b7f4e487b71000000000000000000000000000000000000000000000000000000005f52603260045260245ffd5b5f5f83357fffffffffffffffffffffffffffffffffffffffffffffffffffffffffffffffe1843603018112612df1575f5ffd5b83018035915067ffffffffffffffff821115612e0b575f5ffd5b6020019150368190038213156128ca575f5ffd5b5f5f60408385031215612e30575f5ffd5b82359150612e4060208401612d42565b90509250929050565b60208101612e5683612bcd565b91905290565b7f4e487b71000000000000000000000000000000000000000000000000000000005f52604160045260245ffd5b5f60208284031215612e99575f5ffd5b5051919050565b7f4e487b71000000000000000000000000000000000000000000000000000000005f52601160045260245ffd5b818103818111156111c7576111c7612ea0565b5f60208284031215612ef0575f5ffd5b815180151581146119a5575f5ffd5b5f7fffffffffffffffffffffffffffffffffffffffffffffffffffffffffffffffff8203612f2f57612f2f612ea0565b5060010190565b5f81518060208401855e5f93019283525090919050565b7f5945532d0000000000000000000000000000000000000000000000000000000081525f6119a56004830184612f36565b604081525f612f906040830185612a75565b8281036020840152612fa28185612a75565b95945050505050565b7f4e4f2d000000000000000000000000000000000000000000000000000000000081525f6119a56003830184612f36565b808201808211156111c7576111c7612ea0565b7f4e487b71000000000000000000000000000000000000000000000000000000005f52601260045260245ffd5b5f8261302a5761302a612fef565b500490565b5f8261303d5761303d612fef565b500690565b5f8161305057613050612ea0565b507fffffffffffffffffffffffffffffffffffffffffffffffffffffffffffffffff0190565b600181811c9082168061308a57607f821691505b602082108103612886577f4e487b71000000000000000000000000000000000000000000000000000000005f52602260045260245ffdfe60a060405234801561000f575f5ffd5b50604051610eb4380380610eb483398101604081905261002e916100f5565b8181600361003c83826101de565b50600461004982826101de565b50503360805250610298915050565b634e487b7160e01b5f52604160045260245ffd5b5f82601f83011261007b575f5ffd5b81516001600160401b0381111561009457610094610058565b604051601f8201601f19908116603f011681016001600160401b03811182821017156100c2576100c2610058565b6040528181528382016020018510156100d9575f5ffd5b8160208501602083015e5f918101602001919091529392505050565b5f5f60408385031215610106575f5ffd5b82516001600160401b0381111561011b575f5ffd5b6101278582860161006c565b602085015190935090506001600160401b03811115610144575f5ffd5b6101508582860161006c565b9150509250929050565b600181811c9082168061016e57607f821691505b60208210810361018c57634e487b7160e01b5f52602260045260245ffd5b50919050565b601f8211156101d957805f5260205f20601f840160051c810160208510156101b75750805b601f840160051c820191505b818110156101d6575f81556001016101c3565b50505b505050565b81516001600160401b038111156101f7576101f7610058565b61020b81610205845461015a565b84610192565b6020601f82116001811461023d575f83156102265750848201515b5f19600385901b1c1916600184901b1784556101d6565b5f84815260208120601f198516915b8281101561026c578785015182556020948501946001909201910161024c565b508482101561028957868401515f19600387901b60f8161c191681555b50505050600190811b01905550565b608051610bf66102be5f395f81816101c501528181610335015261041c0152610bf65ff3fe608060405234801561000f575f5ffd5b50600436106100cf575f3560e01c806370a082311161007d578063a9059cbb11610058578063a9059cbb146101ad578063c45a0155146101c0578063dd62ed3e1461020c575f5ffd5b806370a082311461015d57806395d89b41146101925780639dc29fac1461019a575f5ffd5b806323b872dd116100ad57806323b872dd14610126578063313ce5671461013957806340c10f1914610148575f5ffd5b806306fdde03146100d3578063095ea7b3146100f157806318160ddd14610114575b5f5ffd5b6100db610251565b6040516100e89190610a09565b60405180910390f35b6101046100ff366004610a84565b6102e1565b60405190151581526020016100e8565b6002545b6040519081526020016100e8565b610104610134366004610aac565b6102fa565b604051600681526020016100e8565b61015b610156366004610a84565b61031d565b005b61011861016b366004610ae6565b73ffffffffffffffffffffffffffffffffffffffff165f9081526020819052604090205490565b6100db6103f5565b61015b6101a8366004610a84565b610404565b6101046101bb366004610a84565b6104d3565b6101e77f000000000000000000000000000000000000000000000000000000000000000081565b60405173ffffffffffffffffffffffffffffffffffffffff90911681526020016100e8565b61011861021a366004610b06565b73ffffffffffffffffffffffffffffffffffffffff9182165f90815260016020908152604080832093909416825291909152205490565b60606003805461026090610b37565b80601f016020809104026020016040519081016040528092919081815260200182805461028c90610b37565b80156102d75780601f106102ae576101008083540402835291602001916102d7565b820191905f5260205f20905b8154815290600101906020018083116102ba57829003601f168201915b5050505050905090565b5f336102ee8185856104e0565b60019150505b92915050565b5f336103078582856104f2565b6103128585856105c0565b506001949350505050565b3373ffffffffffffffffffffffffffffffffffffffff7f000000000000000000000000000000000000000000000000000000000000000016146103e7576040517f08c379a000000000000000000000000000000000000000000000000000000000815260206004820152602360248201527f4f7574636f6d65546f6b656e3a2063616c6c6572206973206e6f74206661637460448201527f6f7279000000000000000000000000000000000000000000000000000000000060648201526084015b60405180910390fd5b6103f18282610669565b5050565b60606004805461026090610b37565b3373ffffffffffffffffffffffffffffffffffffffff7f000000000000000000000000000000000000000000000000000000000000000016146104c9576040517f08c379a000000000000000000000000000000000000000000000000000000000815260206004820152602360248201527f4f7574636f6d65546f6b656e3a2063616c6c6572206973206e6f74206661637460448201527f6f7279000000000000000000000000000000000000000000000000000000000060648201526084016103de565b6103f182826106c3565b5f336102ee8185856105c0565b6104ed838383600161071d565b505050565b73ffffffffffffffffffffffffffffffffffffffff8381165f908152600160209081526040808320938616835292905220547fffffffffffffffffffffffffffffffffffffffffffffffffffffffffffffffff8110156105ba57818110156105ac576040517ffb8f41b200000000000000000000000000000000000000000000000000000000815273ffffffffffffffffffffffffffffffffffffffff8416600482015260248101829052604481018390526064016103de565b6105ba84848484035f61071d565b50505050565b73ffffffffffffffffffffffffffffffffffffffff831661060f576040517f96c6fd1e0000000000000000000000000000000000000000000000000000000081525f60048201526024016103de565b73ffffffffffffffffffffffffffffffffffffffff821661065e576040517fec442f050000000000000000000000000000000000000000000000000000000081525f60048201526024016103de565b6104ed838383610862565b73ffffffffffffffffffffffffffffffffffffffff82166106b8576040517fec442f050000000000000000000000000000000000000000000000000000000081525f60048201526024016103de565b6103f15f8383610862565b73ffffffffffffffffffffffffffffffffffffffff8216610712576040517f96c6fd1e0000000000000000000000000000000000000000000000000000000081525f60048201526024016103de565b6103f1825f83610862565b73ffffffffffffffffffffffffffffffffffffffff841661076c576040517fe602df050000000000000000000000000000000000000000000000000000000081525f60048201526024016103de565b73ffffffffffffffffffffffffffffffffffffffff83166107bb576040517f94280d620000000000000000000000000000000000000000000000000000000081525f60048201526024016103de565b73ffffffffffffffffffffffffffffffffffffffff8085165f90815260016020908152604080832093871683529290522082905580156105ba578273ffffffffffffffffffffffffffffffffffffffff168473ffffffffffffffffffffffffffffffffffffffff167f8c5be1e5ebec7d5bd14f71427d1e84f3dd0314c0f7b2291e5b200ac8c7c3b9258460405161085491815260200190565b60405180910390a350505050565b73ffffffffffffffffffffffffffffffffffffffff8316610899578060025f82825461088e9190610b88565b909155506109499050565b73ffffffffffffffffffffffffffffffffffffffff83165f908152602081905260409020548181101561091e576040517fe450d38c00000000000000000000000000000000000000000000000000000000815273ffffffffffffffffffffffffffffffffffffffff8516600482015260248101829052604481018390526064016103de565b73ffffffffffffffffffffffffffffffffffffffff84165f9081526020819052604090209082900390555b73ffffffffffffffffffffffffffffffffffffffff82166109725760028054829003905561099d565b73ffffffffffffffffffffffffffffffffffffffff82165f9081526020819052604090208054820190555b8173ffffffffffffffffffffffffffffffffffffffff168373ffffffffffffffffffffffffffffffffffffffff167fddf252ad1be2c89b69c2b068fc378daa952ba7f163c4a11628f55a4df523b3ef836040516109fc91815260200190565b60405180910390a3505050565b602081525f82518060208401528060208501604085015e5f6040828501015260407fffffffffffffffffffffffffffffffffffffffffffffffffffffffffffffffe0601f83011684010191505092915050565b803573ffffffffffffffffffffffffffffffffffffffff81168114610a7f575f5ffd5b919050565b5f5f60408385031215610a95575f5ffd5b610a9e83610a5c565b946020939093013593505050565b5f5f5f60608486031215610abe575f5ffd5b610ac784610a5c565b9250610ad560208501610a5c565b929592945050506040919091013590565b5f60208284031215610af6575f5ffd5b610aff82610a5c565b9392505050565b5f5f60408385031215610b17575f5ffd5b610b2083610a5c565b9150610b2e60208401610a5c565b90509250929050565b600181811c90821680610b4b57607f821691505b602082108103610b82577f4e487b71000000000000000000000000000000000000000000000000000000005f52602260045260245ffd5b50919050565b808201808211156102f4577f4e487b71000000000000000000000000000000000000000000000000000000005f52601160045260245ffdfea264697066735822122006d10c20bbe50a8768fe517baec3cde3c3def3b8f43123e0db695753073e626b64736f6c634300081e0033a2646970667358221220065af3df8ab204d8fe63170dc9f141278050929001a2284c09f8d9b0df31ec4264736f6c634300081e0033","linkReferences":{}},"methodIdentifiers":{"ORDER_TYPEHASH()":"f973a209","batchFillOrders((uint256,uint8,address,uint256,uint256,uint256,uint256)[],bytes[])":"41df6d90","cancelMarket(uint256)":"7c16cd9e","collateralToken()":"b2016bd4","createMarket(bytes32,uint256)":"d2883325","eip712Domain()":"84b0196e","fillOrder((uint256,uint8,address,uint256,uint256,uint256,uint256),bytes)":"360b5207","forwarder()":"f645d4f9","getMarket(uint256)":"eb44fdd3","getTokenAddresses(uint256)":"c591a491","marketCount()":"ec979082","markets(uint256)":"b1283e77","nonces(address)":"7ecebe00","onReport(bytes,bytes)":"805f2132","orderDigest((uint256,uint8,address,uint256,uint256,uint256,uint256))":"bad72666","owner()":"8da5cb5b","questionExists(bytes32)":"8d8e35e3","redeemWinning(uint256,uint256)":"90008382","setForwarder(address)":"b9998a24","setOwner(address)":"13af4035"},"id":45}